:1000000003308A005F2B00000A108A100A11820751
:1000100028340C3401340634F33466396510E7347F
:10002000F2346E10F930E4300A00F33466396510AA
:10003000E432E734731022152200F3346639E53CCC
:100040006910E734F2346E050001733469346634A4
:1000500072346534203464346F34F034723475345F
:100060000A340034733469346634723465342034AD
:10007000793461346E346C34FD3473340A340034B2
:10008000F4326B39613920326537E53C6937693DB7
:100090000A00F3346639E53C6910E734F2346E0542
:1000A0000001F3346639E53C6910E734F2346E053B
:1000B0000001733469346634723465342034793421
:1000C00061346E346C34FD3473340A340034F432E9
:1000D0006B39613920326537E53C6937693D0A0083
:1000E000F932EE34A0396933F232F934A033693988
:1000F00069370A00F33466396510E432E734733A3D
:1001000069050001F932EE34E4326E10E734F2345E
:10011000EE347A050001F3346639E53C6910E734C2
:10012000F2346E0500003530840083130008031993
:10013000A6280630F800F701F70B9C28F80B9B283F
:100140007B30F700F70BA228800B992808003C1899
:10015000AB280612AC280616831606128312BC18AA
:10016000B3288612B42886168316861283123C1989
:10017000BB280613BC280617831606138312BC1966
:10018000C3288613C428861783168613000083129B
:100190000614831606100230F700F70BCD28D0287E
:1001A0000000831206108316061083120800BD019A
:1001B0008316061600308312061A0130BD0483161A
:1001C000861600308312861A0130F7000310F70DEF
:1001D0007708BD048316061700308312061B013012
:1001E000F700F70DF70DFC30F7057708BD0483160F
:1001F000861700308312861B0130F700F70DF70DCC
:10020000F70DF830F7057708BD043D08F800080041
:100210008316061086100611831286108316861028
:1002200006168616061786178312061583160611FC
:100230000000831206148316061000008312D720D4
:100240007808BC00061083160610000083120614FE
:10025000831606102B292C2900008312D72078083A
:10026000BB000610831606100612861206138613AC
:1002700083123C0EF700F030F70577083B04F800D6
:100280007808BB00BB1F462983161029B908031D37
:100290004B2986104C298614831686100000831281
:1002A000061183160611000083120610831606102D
:1002B00083123A0EBB000F30BB053B08BC00A720E1
:1002C0003A080F39BB00BC00A720080083160612AD
:1002D00086120613861306108610061183128610E6
:1002E00083168610831206118316061183120610D8
:1002F000831606100F308312B50093200130AE0034
:100300002E08033C031C8C290330BC00A7200530B9
:10031000B5009320AE0A80290230BC00A72005302A
:10032000B5009320AE012E08033C031CA0292E0823
:100330000420AF00B9012F08BA000821AE0A9329A2
:100340008A110A126D2B360BA629A9294030B70055
:10035000AA29B70101303502B70737088038B8003D
:10036000B9013808BA00082108003408073A03190F
:10037000C3290B3A0319C829063A0319D029023AAE
:100380000319D629DB290130B500B600A321E029E5
:10039000B9010130BA0008210230B5009320E029EC
:1003A0000130B5000230B600A321E029B9011030B8
:1003B000BA000821E0290130B9003408BA00082148
:1003C00008000B08AE008B13831603178C170C1450
:1003D0000000000083120C087F390319282A031338
:1003E000AF0003170D080313B00003170F08031322
:1003F000B1002F08B400B521300803178D00031396
:10040000310803178F0083168C170C1400000000AE
:1004100083120C0D0E0D7F390319282A0313AF0028
:1004200003170D080313B00003170F080313B100DF
:100430002F08B400B521300803178D0003133108CD
:1004400003178F008D0A03198F0A0313E42903177A
:100450000313AE1B8B1708000C30A0003230B50020
:10046000932083160810831208148316081683122B
:10047000081E3F2A3230B50093200330A0008316B7
:1004800088168312881E492A3230B5009320063020
:10049000A000831608178312081F532A3230B500B4
:1004A00093200930A000831688178312881F5D2AC5
:1004B0003230B50093200A30A00083160810831252
:1004C00008103230B50093208316881083128814E8
:1004D000831608168312081E722A3230B500932044
:1004E0000230A000831688168312881E7C2A3230C0
:1004F000B50093200530A000831608178312081F4B
:10050000862A3230B50093200830A0008316881761
:100510008312881F8F2A3230B5009320A0018316E2
:100520008810831288103230B5009320831608118A
:1005300083120815831608168312081EA42A323067
:10054000B50093200130A000831688168312881E00
:10055000AE2A1430B50093200430A000831608178B
:100560008312081FB82A3230B50093200730A0004C
:10057000831688178312881FC22A3230B500932051
:100580000B30A00083160811831208113230B50019
:1005900093202008F8000800831603178C170C140A
:1005A0000000000083128C080319EF2A0D080313C2
:1005B000AE0003170F080313AF0003170C08031353
:1005C000B400B5212E0803178D0003132F0803175D
:1005D0008F008D0A03198F0A0313CC2A0317031304
:1005E00008003508F80134020318F92A3408F70026
:1005F000052BF7010830B600B40DF70D350877026A
:100600000318F700F80DB60BFC2A080020302F1E47
:100610003030B0002E08F700AE1F162BF709F70A8E
:100620007708AE002D30B000AF172F142E08B4009D
:100630006430B500F1227708AE0030307807B100A1
:100640002E08B4000A30B500F12230307707B3002D
:1006500030307807B2003008F7003030310203192B
:10066000352BAF14AF1B2F15492B3008B1002030AC
:10067000B000303032020319412B2F14AF1BAF14DE
:10068000492B031D2F14031D492B3108B2002030C4
:10069000B1002F19502BAF18532B2F18562B592B55
:1006A0003008B400B5213108B400B5213208B400D7
:1006B000B5213308B400B5218A110A12CB2CFF30C2
:1006C000A10083161F149F141F159F1107309C0053
:1006D00083131F308305831266290F308316880029
:1006E00001308312A2000230A3000330A4000430C2
:1006F000A5000530A6000630A7000730A800083086
:10070000A900AB00AC01AD010C3003178D00003027
:100710008F000313E121153003178D0000308F0087
:100720000313E1212C227808AA002A080B3C0319A4
:10073000282C2A080C3C0319282C2B082C020319FE
:10074000282C0C30B400B5211D3003178D0000306B
:100750008F000313E121A110210883168700831263
:1007600087102A080A3C0319D82B2D08073C031CC4
:10077000D12B2A080B3C0319D12B2A080C3C031956
:10078000C92B22302D07840083132A080002031985
:10079000AC0A2A080C3C0319D12BAD0A2A30B4004C
:1007A000B5216430B50093202C227808AA00B12B23
:1007B0002B082C02031DF42BAD01A1102108831678
:1007C0008700831287102110210883168700831267
:1007D00007140C30B400B521253003178D0000300C
:1007E0008F000313CC22282C2B082C020319282C51
:1007F000AD01AC0121102108831687008312071078
:10080000A110210883168700831287140C30B400CE
:10081000B521323003178D0000308F000313CC2236
:10082000403003178D0000308F000313E1210430A6
:10083000AE00AF30B5009320AE0B192C0C30B400D5
:10084000B521493003178D0000308F000313E121DB
:100850002A080B3C031DFE2C2B082C020319722CBA
:10086000A110210883168700831287100C30B40072
:10087000B521513003178D0000308F000313E121A3
:100880000C30AA00AC012A080C3C031D4B2C2C2276
:100890007808AA00432C2A080A3C0319722C2D0858
:1008A000073C031C6B2C2A080B3C03196B2C2A08F1
:1008B0000C3C0319632C22302D07840083132A0873
:1008C00000020319AC0A2A080C3C03196B2CAD0A70
:1008D0002A30B400B5216430B50093202C2278086A
:1008E000AA004B2C2B082C020319902CAD01AC0153
:1008F000A110210883168700831287140C30B400DE
:10090000B521593003178D0000308F000313CC221E
:10091000673003178D0000308F000313E121FE2C98
:100920002B082C02031DFE2C2110210883168700A2
:10093000831207140C30B400B521703003178D00FA
:1009400000308F000313E1210C30AA00AD012A080A
:100950000C3C031DAF2C2C227808AA00A72C2A08D7
:100960000A3C0319D22C2D08073C031CCB2C2A0867
:100970000B3C0319CB2C2A080C3C0319CB2C22303E
:100980002D07840083132A088000AD0A2A08AE00D0
:100990001830AF00062B6430B50093202C22780865
:1009A000AA00AF2C2D08AB00AD01AC010C30B40097
:1009B000B5217A3003178D0000308F000313E12139
:1009C000823003178D0000308F000313E1210430C3
:1009D000AE00AF30B5009320AE0BE92C21102108FA
:1009E00083168700831207100C30B400B5218B30BA
:1009F00003178D0000308F000313E121922B630059
:02400E00323F3F
:00000001FF
;PIC16F877A
;CRC=F364  CREATED="04-Oca-21 01:10"
